{
  "_format": "hh-sol-artifact-1",
  "contractName": "HealthLedger",
  "sourceName": "contracts/HealthLedger.sol",
  "abi": [
    {
      "inputs": [
        {
          "internalType": "address",
          "name": "admin",
          "type": "address"
        }
      ],
      "stateMutability": "nonpayable",
      "type": "constructor"
    },
    {
      "inputs": [],
      "name": "AccessControlBadConfirmation",
      "type": "error"
    },
    {
      "inputs": [
        {
          "internalType": "address",
          "name": "account",
          "type": "address"
        },
        {
          "internalType": "bytes32",
          "name": "neededRole",
          "type": "bytes32"
        }
      ],
      "name": "AccessControlUnauthorizedAccount",
      "type": "error"
    },
    {
      "anonymous": false,
      "inputs": [
        {
          "indexed": true,
          "internalType": "bytes32",
          "name": "recordId",
          "type": "bytes32"
        },
        {
          "indexed": true,
          "internalType": "address",
          "name": "grantee",
          "type": "address"
        },
        {
          "indexed": true,
          "internalType": "address",
          "name": "granter",
          "type": "address"
        }
      ],
      "name": "AccessGranted",
      "type": "event"
    },
    {
      "anonymous": false,
      "inputs": [
        {
          "indexed": true,
          "internalType": "bytes32",
          "name": "recordId",
          "type": "bytes32"
        },
        {
          "indexed": true,
          "internalType": "address",
          "name": "grantee",
          "type": "address"
        },
        {
          "indexed": true,
          "internalType": "address",
          "name": "revoker",
          "type": "address"
        }
      ],
      "name": "AccessRevoked",
      "type": "event"
    },
    {
      "anonymous": false,
      "inputs": [
        {
          "indexed": true,
          "internalType": "bytes32",
          "name": "recordId",
          "type": "bytes32"
        },
        {
          "indexed": true,
          "internalType": "address",
          "name": "patient",
          "type": "address"
        },
        {
          "indexed": true,
          "internalType": "address",
          "name": "createdBy",
          "type": "address"
        },
        {
          "indexed": false,
          "internalType": "string",
          "name": "cid",
          "type": "string"
        }
      ],
      "name": "RecordCreated",
      "type": "event"
    },
    {
      "anonymous": false,
      "inputs": [
        {
          "indexed": true,
          "internalType": "bytes32",
          "name": "recordId",
          "type": "bytes32"
        },
        {
          "indexed": false,
          "internalType": "string",
          "name": "newCid",
          "type": "string"
        },
        {
          "indexed": false,
          "internalType": "string",
          "name": "newMeta",
          "type": "string"
        },
        {
          "indexed": true,
          "internalType": "address",
          "name": "updater",
          "type": "address"
        }
      ],
      "name": "RecordUpdated",
      "type": "event"
    },
    {
      "anonymous": false,
      "inputs": [
        {
          "indexed": true,
          "internalType": "bytes32",
          "name": "role",
          "type": "bytes32"
        },
        {
          "indexed": true,
          "internalType": "bytes32",
          "name": "previousAdminRole",
          "type": "bytes32"
        },
        {
          "indexed": true,
          "internalType": "bytes32",
          "name": "newAdminRole",
          "type": "bytes32"
        }
      ],
      "name": "RoleAdminChanged",
      "type": "event"
    },
    {
      "anonymous": false,
      "inputs": [
        {
          "indexed": true,
          "internalType": "bytes32",
          "name": "role",
          "type": "bytes32"
        },
        {
          "indexed": true,
          "internalType": "address",
          "name": "account",
          "type": "address"
        },
        {
          "indexed": true,
          "internalType": "address",
          "name": "sender",
          "type": "address"
        }
      ],
      "name": "RoleGranted",
      "type": "event"
    },
    {
      "anonymous": false,
      "inputs": [
        {
          "indexed": true,
          "internalType": "bytes32",
          "name": "role",
          "type": "bytes32"
        },
        {
          "indexed": true,
          "internalType": "address",
          "name": "account",
          "type": "address"
        },
        {
          "indexed": true,
          "internalType": "address",
          "name": "sender",
          "type": "address"
        }
      ],
      "name": "RoleRevoked",
      "type": "event"
    },
    {
      "inputs": [],
      "name": "ADMIN_ROLE",
      "outputs": [
        {
          "internalType": "bytes32",
          "name": "",
          "type": "bytes32"
        }
      ],
      "stateMutability": "view",
      "type": "function"
    },
    {
      "inputs": [],
      "name": "DEFAULT_ADMIN_ROLE",
      "outputs": [
        {
          "internalType": "bytes32",
          "name": "",
          "type": "bytes32"
        }
      ],
      "stateMutability": "view",
      "type": "function"
    },
    {
      "inputs": [],
      "name": "DIAGNOSTIC_ROLE",
      "outputs": [
        {
          "internalType": "bytes32",
          "name": "",
          "type": "bytes32"
        }
      ],
      "stateMutability": "view",
      "type": "function"
    },
    {
      "inputs": [],
      "name": "DOCTOR_ROLE",
      "outputs": [
        {
          "internalType": "bytes32",
          "name": "",
          "type": "bytes32"
        }
      ],
      "stateMutability": "view",
      "type": "function"
    },
    {
      "inputs": [],
      "name": "PATIENT_ROLE",
      "outputs": [
        {
          "internalType": "bytes32",
          "name": "",
          "type": "bytes32"
        }
      ],
      "stateMutability": "view",
      "type": "function"
    },
    {
      "inputs": [
        {
          "internalType": "address",
          "name": "account",
          "type": "address"
        }
      ],
      "name": "addDoctor",
      "outputs": [],
      "stateMutability": "nonpayable",
      "type": "function"
    },
    {
      "inputs": [
        {
          "internalType": "bytes32",
          "name": "recordId",
          "type": "bytes32"
        },
        {
          "internalType": "address",
          "name": "patient",
          "type": "address"
        },
        {
          "internalType": "string",
          "name": "cid",
          "type": "string"
        },
        {
          "internalType": "string",
          "name": "meta",
          "type": "string"
        }
      ],
      "name": "createRecord",
      "outputs": [],
      "stateMutability": "nonpayable",
      "type": "function"
    },
    {
      "inputs": [
        {
          "internalType": "uint256",
          "name": "hhNumber",
          "type": "uint256"
        }
      ],
      "name": "getDiagnostic",
      "outputs": [
        {
          "internalType": "string",
          "name": "",
          "type": "string"
        },
        {
          "internalType": "string",
          "name": "",
          "type": "string"
        },
        {
          "internalType": "string",
          "name": "",
          "type": "string"
        },
        {
          "internalType": "address",
          "name": "",
          "type": "address"
        }
      ],
      "stateMutability": "view",
      "type": "function"
    },
    {
      "inputs": [
        {
          "internalType": "uint256",
          "name": "hhNumber",
          "type": "uint256"
        }
      ],
      "name": "getDoctor",
      "outputs": [
        {
          "internalType": "string",
          "name": "",
          "type": "string"
        },
        {
          "internalType": "string",
          "name": "",
          "type": "string"
        },
        {
          "internalType": "string",
          "name": "",
          "type": "string"
        },
        {
          "internalType": "string",
          "name": "",
          "type": "string"
        },
        {
          "internalType": "address",
          "name": "",
          "type": "address"
        }
      ],
      "stateMutability": "view",
      "type": "function"
    },
    {
      "inputs": [
        {
          "internalType": "address",
          "name": "doctor",
          "type": "address"
        }
      ],
      "name": "getDoctorPatients",
      "outputs": [
        {
          "internalType": "bytes32[]",
          "name": "",
          "type": "bytes32[]"
        }
      ],
      "stateMutability": "view",
      "type": "function"
    },
    {
      "inputs": [
        {
          "internalType": "uint256",
          "name": "hhNumber",
          "type": "uint256"
        }
      ],
      "name": "getPatient",
      "outputs": [
        {
          "internalType": "string",
          "name": "",
          "type": "string"
        },
        {
          "internalType": "uint256",
          "name": "",
          "type": "uint256"
        },
        {
          "internalType": "string",
          "name": "",
          "type": "string"
        },
        {
          "internalType": "string",
          "name": "",
          "type": "string"
        },
        {
          "internalType": "string",
          "name": "",
          "type": "string"
        },
        {
          "internalType": "string",
          "name": "",
          "type": "string"
        },
        {
          "internalType": "address",
          "name": "",
          "type": "address"
        }
      ],
      "stateMutability": "view",
      "type": "function"
    },
    {
      "inputs": [
        {
          "internalType": "bytes32",
          "name": "recordId",
          "type": "bytes32"
        }
      ],
      "name": "getRecord",
      "outputs": [
        {
          "internalType": "address",
          "name": "patient",
          "type": "address"
        },
        {
          "internalType": "address",
          "name": "createdBy",
          "type": "address"
        },
        {
          "internalType": "string",
          "name": "cid",
          "type": "string"
        },
        {
          "internalType": "string",
          "name": "meta",
          "type": "string"
        },
        {
          "internalType": "uint256",
          "name": "createdAt",
          "type": "uint256"
        }
      ],
      "stateMutability": "view",
      "type": "function"
    },
    {
      "inputs": [
        {
          "internalType": "bytes32",
          "name": "role",
          "type": "bytes32"
        }
      ],
      "name": "getRoleAdmin",
      "outputs": [
        {
          "internalType": "bytes32",
          "name": "",
          "type": "bytes32"
        }
      ],
      "stateMutability": "view",
      "type": "function"
    },
    {
      "inputs": [
        {
          "internalType": "bytes32",
          "name": "recordId",
          "type": "bytes32"
        },
        {
          "internalType": "address",
          "name": "grantee",
          "type": "address"
        }
      ],
      "name": "grantAccess",
      "outputs": [],
      "stateMutability": "nonpayable",
      "type": "function"
    },
    {
      "inputs": [
        {
          "internalType": "bytes32",
          "name": "role",
          "type": "bytes32"
        },
        {
          "internalType": "address",
          "name": "account",
          "type": "address"
        }
      ],
      "name": "grantRole",
      "outputs": [],
      "stateMutability": "nonpayable",
      "type": "function"
    },
    {
      "inputs": [
        {
          "internalType": "bytes32",
          "name": "recordId",
          "type": "bytes32"
        },
        {
          "internalType": "address",
          "name": "account",
          "type": "address"
        }
      ],
      "name": "hasAccess",
      "outputs": [
        {
          "internalType": "bool",
          "name": "",
          "type": "bool"
        }
      ],
      "stateMutability": "view",
      "type": "function"
    },
    {
      "inputs": [
        {
          "internalType": "bytes32",
          "name": "role",
          "type": "bytes32"
        },
        {
          "internalType": "address",
          "name": "account",
          "type": "address"
        }
      ],
      "name": "hasRole",
      "outputs": [
        {
          "internalType": "bool",
          "name": "",
          "type": "bool"
        }
      ],
      "stateMutability": "view",
      "type": "function"
    },
    {
      "inputs": [
        {
          "internalType": "string",
          "name": "name",
          "type": "string"
        },
        {
          "internalType": "string",
          "name": "location",
          "type": "string"
        },
        {
          "internalType": "string",
          "name": "email",
          "type": "string"
        },
        {
          "internalType": "uint256",
          "name": "hhNumber",
          "type": "uint256"
        },
        {
          "internalType": "address",
          "name": "walletAddress",
          "type": "address"
        }
      ],
      "name": "registerDiagnostic",
      "outputs": [],
      "stateMutability": "nonpayable",
      "type": "function"
    },
    {
      "inputs": [
        {
          "internalType": "string",
          "name": "name",
          "type": "string"
        },
        {
          "internalType": "string",
          "name": "specialization",
          "type": "string"
        },
        {
          "internalType": "string",
          "name": "hospital",
          "type": "string"
        },
        {
          "internalType": "string",
          "name": "email",
          "type": "string"
        },
        {
          "internalType": "uint256",
          "name": "hhNumber",
          "type": "uint256"
        },
        {
          "internalType": "address",
          "name": "walletAddress",
          "type": "address"
        }
      ],
      "name": "registerDoctor",
      "outputs": [],
      "stateMutability": "nonpayable",
      "type": "function"
    },
    {
      "inputs": [
        {
          "internalType": "string",
          "name": "name",
          "type": "string"
        },
        {
          "internalType": "uint256",
          "name": "dob",
          "type": "uint256"
        },
        {
          "internalType": "string",
          "name": "gender",
          "type": "string"
        },
        {
          "internalType": "string",
          "name": "bloodGroup",
          "type": "string"
        },
        {
          "internalType": "string",
          "name": "homeAddress",
          "type": "string"
        },
        {
          "internalType": "string",
          "name": "email",
          "type": "string"
        },
        {
          "internalType": "uint256",
          "name": "hhNumber",
          "type": "uint256"
        },
        {
          "internalType": "address",
          "name": "walletAddress",
          "type": "address"
        }
      ],
      "name": "registerPatient",
      "outputs": [],
      "stateMutability": "nonpayable",
      "type": "function"
    },
    {
      "inputs": [
        {
          "internalType": "address",
          "name": "account",
          "type": "address"
        }
      ],
      "name": "removeDoctor",
      "outputs": [],
      "stateMutability": "nonpayable",
      "type": "function"
    },
    {
      "inputs": [
        {
          "internalType": "bytes32",
          "name": "role",
          "type": "bytes32"
        },
        {
          "internalType": "address",
          "name": "callerConfirmation",
          "type": "address"
        }
      ],
      "name": "renounceRole",
      "outputs": [],
      "stateMutability": "nonpayable",
      "type": "function"
    },
    {
      "inputs": [
        {
          "internalType": "bytes32",
          "name": "recordId",
          "type": "bytes32"
        },
        {
          "internalType": "address",
          "name": "grantee",
          "type": "address"
        }
      ],
      "name": "revokeAccess",
      "outputs": [],
      "stateMutability": "nonpayable",
      "type": "function"
    },
    {
      "inputs": [
        {
          "internalType": "bytes32",
          "name": "role",
          "type": "bytes32"
        },
        {
          "internalType": "address",
          "name": "account",
          "type": "address"
        }
      ],
      "name": "revokeRole",
      "outputs": [],
      "stateMutability": "nonpayable",
      "type": "function"
    },
    {
      "inputs": [
        {
          "internalType": "bytes4",
          "name": "interfaceId",
          "type": "bytes4"
        }
      ],
      "name": "supportsInterface",
      "outputs": [
        {
          "internalType": "bool",
          "name": "",
          "type": "bool"
        }
      ],
      "stateMutability": "view",
      "type": "function"
    },
    {
      "inputs": [
        {
          "internalType": "bytes32",
          "name": "recordId",
          "type": "bytes32"
        },
        {
          "internalType": "string",
          "name": "newCid",
          "type": "string"
        },
        {
          "internalType": "string",
          "name": "newMeta",
          "type": "string"
        }
      ],
      "name": "updateRecord",
      "outputs": [],
      "stateMutability": "nonpayable",
      "type": "function"
    }
  ],
  "bytecode": "0x608034620000b957601f62002eeb38819003918201601f19168301916001600160401b03831184841017620000be57808492602094604052833981010312620000b957516001600160a01b038116808203620000b957156200008357806200006b6200007292620000d4565b5062000154565b50604051612cd49081620001f78239f35b60405162461bcd60e51b815260206004820152600e60248201526d18591b5a5b881c995c5d5a5c995960921b6044820152606490fd5b600080fd5b634e487b7160e01b600052604160045260246000fd5b6001600160a01b031660008181527fad3228b676f7d3cd4284a5443f17f1962b36e491b30a40b2405849e597ba5fb5602052604081205490919060ff166200015057818052816020526040822081835260205260408220600160ff19825416179055339160008051602062002ecb8339815191528180a4600190565b5090565b6001600160a01b031660008181527f7d7ffb7a348e1c6a02869081a26547b49160dd3df72d1d75a570eb9b698292ec60205260408120549091907fa49807205ce4d355092ef5a8a18f56e8913cf4a201fbe287825b095693c217759060ff16620001f157808352826020526040832082845260205260408320600160ff1982541617905560008051602062002ecb833981519152339380a4600190565b50509056fe608080604052600436101561001357600080fd5b60003560e01c90816301ffc9a7146123835750806307b702ba14611f2b5780630fdf5ca714611bf0578063213681cd14611a9b578063248a9ca314611a6c5780632f2ff15d14611a2d57806336568abe146119e657806340554c3a146118325780634780468f146117bb5780635ef33cfe1461172e57806369b0a72d1461167c57806375b238fc146116535780637806d4f9146110635780637d3a679614610f8857806383177db314610f585780638d53b20814610e5f57806390ec8af314610a5557806391d1485414610a0857806398fc90e914610991578063a217fddf14610975578063ac5cb97d1461093a578063ba5084671461071c578063c6a33ef9146101e7578063c7cdf5af146101ac578063d547741f1461016b5763fec331f21461013d57600080fd5b34610166576000366003190112610166576020604051600080516020612c3f8339815191528152f35b600080fd5b34610166576040366003190112610166576101aa60043561018a6123d6565b908060005260006020526101a5600160406000200154612881565b612b89565b005b346101665760003660031901126101665760206040517f365427a77302f6c15e25fbb39b2016b6cfdc7982b9e30691e61947a1d364ea908152f35b346101665760c0366003190112610166576004356001600160401b03811161016657610217903690600401612402565b906024356001600160401b03811161016657610237903690600401612402565b6044929192356001600160401b03811161016657610259903690600401612402565b9290916064356001600160401b0381116101665761027b903690600401612402565b966084359460a4356001600160a01b0381169590869003610166576102f298610320956102f961030293610311968a331480156106f6575b80156106d0575b6102c390612734565b60008c8152600560205260409020600401546102e8906001600160a01b031615612792565b6040519d8e6124ae565b36916124ea565b8b5236916124ea565b966020890197885236916124ea565b966040870197885236916124ea565b60608501526080840152600052600560205260406000209082518051906001600160401b03821161055f5761035f826103598654612530565b8661256a565b602090601f8311600114610668576103909291600091836104ea575b50508160011b916000199060031b1c19161790565b82555b519283516001600160401b03811161055f576103bf816103b66001860154612530565b6001860161256a565b6020601f82116001146105f95781906103f1939495966000926105ee5750508160011b916000199060031b1c19161790565b60018301555b519182516001600160401b03811161055f576104238161041a6002860154612530565b6002860161256a565b6020601f82116001146105805781906104549394956000926105755750508160011b916000199060031b1c19161790565b60028301555b600382019160608201519283516001600160401b03811161055f57610489816104838454612530565b8461256a565b6020601f82116001146104f55790806104bc92600496976000926104ea5750508160011b916000199060031b1c19161790565b90555b0190608060018060a01b03910151166001600160601b0360a01b8254161790556101aa60a4356128c5565b01519050878061037b565b601f198216958360005260206000209660005b818110610547575091600496979184600195941061052e575b505050811b0190556104bf565b015160001960f88460031b161c19169055868080610521565b83830151895560019098019760209384019301610508565b634e487b7160e01b600052604160045260246000fd5b01519050858061037b565b6002840160005260206000209060005b601f19841681106105d65750600193949583601f198116106105bd575b505050811b01600283015561045a565b015160001960f88460031b161c191690558480806105ad565b9091602060018192858a015181550193019101610590565b01519050868061037b565b6001840160005260206000209060005b601f1984168110610650575060019394959683601f19811610610637575b505050811b0160018301556103f7565b015160001960f88460031b161c19169055858080610627565b9091602060018192858b015181550193019101610609565b90601f198316918560005260206000209260005b8181106106b8575090846001959493921061069f575b505050811b018255610393565b015160001960f88460031b161c19169055868080610692565b9293602060018192878601518155019501930161067c565b50336000908152600080516020612c7f833981519152602052604090205460ff166102ba565b50336000908152600080516020612c1f833981519152602052604090205460ff166102b3565b3461016657602080600319360112610166576107366123ec565b600080516020612c3f83398151915260005260008252604060002033600052825260ff60406000205416801561090a575b80156108ec575b6107779061246f565b6001600160a01b031680156108b5578033148015610885575b8015610863575b1561082d5760005260038152604060002060405190818382549182815201908192600052846000209060005b868282106108195786866107d9828803836124c9565b604051928392818401908285525180915260408401929160005b82811061080257505050500390f35b8351855286955093810193928101926001016107f3565b8354855290930192600192830192016107c3565b60405162461bcd60e51b815260048101839052600e60248201526d1b9bdd08185d5d1a1bdc9a5e995960921b6044820152606490fd5b506000805260008252604060002033600052825260ff60406000205416610797565b50600080516020612c5f83398151915260005260008252604060002033600052825260ff60406000205416610790565b60405162461bcd60e51b815260048101839052600f60248201526e191bd8dd1bdc881c995c5d5a5c9959608a1b6044820152606490fd5b5060008080528083526040808220338352845290205460ff1661076e565b50600080516020612c5f83398151915260005260008252604060002033600052825260ff60406000205416610767565b346101665760003660031901126101665760206040517f72606200fac42b7dc86b75901d61ecfab2a4a1a6eded478b97a428094891abed8152f35b3461016657600036600319011261016657602060405160008152f35b34610166576020366003190112610166576101aa6109ad6123ec565b336000908152600080516020612c1f833981519152602052604090205460ff1680156109e2575b6109dd906126fc565b612af0565b50336000908152600080516020612c7f833981519152602052604090205460ff166109d4565b3461016657604036600319011261016657610a216123d6565b600435600052600060205260406000209060018060a01b0316600052602052602060ff604060002054166040519015158152f35b346101665760a0366003190112610166576004356001600160401b03811161016657610a85903690600401612402565b6024356001600160401b03811161016657610aa4903690600401612402565b91906044356001600160401b03811161016657610ac5903690600401612402565b9490916084356001600160a01b038116900361016657336084356001600160a01b0316148015610e39575b8015610e13575b610b0090612734565b606435600090815260066020526040902060030154610b28906001600160a01b031615612792565b604051948560808101106001600160401b0360808801111761055f57610b5d610b6693610b75966080890160405236916124ea565b865236916124ea565b936020840194855236916124ea565b9060408101918252606081019160018060a01b036084351683526064356000526006602052604060002091518051906001600160401b03821161055f57610bc0826103598654612530565b602090601f8311600114610dab57610bf09291600091836104ea5750508160011b916000199060031b1c19161790565b82555b60019384830190518051906001600160401b03821161055f57610c2082610c1a8554612530565b8561256a565b602090601f8311600114610d4857610c50929160009183610d3d5750508160011b916000199060031b1c19161790565b90555b600282019051938451906001600160401b03821161055f57610c7982610c1a8554612530565b602090601f8311600114610cd957509080610cae92600396976000926104ea5750508160011b916000199060031b1c19161790565b90555b019060018060a01b039051166001600160601b0360a01b8254161790556101aa6084356129ee565b9190601f198216908460005260206000209160005b818110610d27575097836003989910610d0f575b505050811b019055610cb1565b015160001983881b60f8161c19169055868080610d02565b8983015184559285019260209283019201610cee565b01519050888061037b565b879291601f198316918560005260206000209260005b818110610d9357508411610d7a575b505050811b019055610c53565b015160001960f88460031b161c19169055878080610d6d565b8284015185558b969094019360209384019301610d5e565b90601f198316918560005260206000209260005b818110610dfb5750908460019594939210610de2575b505050811b018255610bf3565b015160001960f88460031b161c19169055868080610dd5565b92936020600181928786015181550195019301610dbf565b50336000908152600080516020612c7f833981519152602052604090205460ff16610af7565b50336000908152600080516020612c1f833981519152602052604090205460ff16610af0565b3461016657604036600319011261016657600435610e7b6123d6565b81600052602090600182526040600020610e9a600482015415156125e1565b546001600160a01b0390811633148015610f28575b8015610f0a575b610ebf906126be565b836000526002835260406000209116918260005252604060002060ff19815416905533917ffab19bdeacf1ea13315b1da3f79a3403fe4f16793b6a03eeff9e0bbbea24fe5f600080a4005b5060008080528084526040808220338352855290205460ff16610eb6565b50600080516020612c5f83398151915260005260008352604060002033600052835260ff60406000205416610eaf565b34610166576040366003190112610166576020610f7e610f766123d6565b6004356127de565b6040519015158152f35b3461016657602036600319011261016657600435600052600460205261101c6040600020600181015461105960018060a01b036006840154169161104b610fce85612619565b9461103d610fde60028301612619565b9361102f610fee60038501612619565b91611007600561100060048801612619565b9601612619565b966040519b8c9b60e08d5260e08d019061242f565b9160208c01528a820360408c015261242f565b9088820360608a015261242f565b90868203608088015261242f565b9084820360a086015261242f565b9060c08301520390f35b3461016657610100366003190112610166576004356001600160401b03811161016657611094903690600401612402565b6044356001600160401b038111610166576110b3903690600401612402565b90916064356001600160401b038111610166576110d4903690600401612402565b9290916084356001600160401b038111610166576110f6903690600401612402565b909160a4356001600160401b03811161016657611117903690600401612402565b909690959060e4356001600160a01b0381169003610166573360e4356001600160a01b031614801561162d575b8015611607575b61115490612734565b60c43560009081526004602052604090206006015461117c906001600160a01b031615612792565b604051998a60e08101106001600160401b0360e08d01111761055f576111ee996111e2976111b96111ca936111d6978f60e00160405236916124ea565b8d5260243560208e015236916124ea565b60408b015236916124ea565b606088015236916124ea565b608085015236916124ea565b60a082015260018060a01b0360e4351660c082015260c4356000526004602052604060002081519182516001600160401b03811161055f5761123481610c1a8554612530565b6020601f821160011461159f5781906112659394956000926105755750508160011b916000199060031b1c19161790565b82555b6001916020820151838201556002810160408301518051906001600160401b03821161055f5761129c82610c1a8554612530565b602090601f831160011461153c576112cc9291600091836104ea5750508160011b916000199060031b1c19161790565b90555b6003810160608301518051906001600160401b03821161055f576112f782610c1a8554612530565b602090601f83116001146114d9576113279291600091836104ea5750508160011b916000199060031b1c19161790565b90555b6004810160808301518051906001600160401b03821161055f5761135282610c1a8554612530565b602090601f8311600114611476576113829291600091836104ea5750508160011b916000199060031b1c19161790565b90555b6005810160a0830151938451906001600160401b03821161055f576113ae82610c1a8554612530565b602090601f8311600114611411575090806113e392600696976000926104ea5750508160011b916000199060031b1c19161790565b90555b019060c060018060a01b03910151166001600160601b0360a01b8254161790556101aa60e435612953565b9190601f198216908460005260206000209160005b818110611460575097836006989910611447575b505050811b0190556113e6565b015160001960f88460031b161c1916905586808061143a565b8983015184559285019260209283019201611426565b869291601f198316918560005260206000209260005b8181106114c1575084116114a8575b505050811b019055611385565b015160001960f88460031b161c1916905586808061149b565b8284015185558a96909401936020938401930161148c565b869291601f198316918560005260206000209260005b8181106115245750841161150b575b505050811b01905561132a565b015160001960f88460031b161c191690558680806114fe565b8284015185558a9690940193602093840193016114ef565b869291601f198316918560005260206000209260005b8181106115875750841161156e575b505050811b0190556112cf565b015160001960f88460031b161c19169055868080611561565b8284015185558a969094019360209384019301611552565b8360005260206000209060005b601f19841681106115ef5750600193949583601f198116106115d6575b505050811b018255611268565b015160001960f88460031b161c191690558480806115c9565b9091602060018192858a0151815501930191016115ac565b50336000908152600080516020612c7f833981519152602052604090205460ff1661114b565b50336000908152600080516020612c1f833981519152602052604090205460ff16611144565b34610166576000366003190112610166576020604051600080516020612c5f8339815191528152f35b346101665760203660031901126101665760043560005260056020526116fa604060002060018060a01b036004820154166117246116b983612619565b926117166116c960018301612619565b916117086116e560036116de60028501612619565b9301612619565b9360405198899860a08a5260a08a019061242f565b9088820360208a015261242f565b90868203604088015261242f565b90848203606086015261242f565b9060808301520390f35b34610166576020366003190112610166576004356000526006602052611795604060002060018060a01b036003820154166117b161176b83612619565b926117a361178060026116de60018501612619565b9160405196879660808852608088019061242f565b90868203602088015261242f565b90848203604086015261242f565b9060608301520390f35b34610166576020366003190112610166576101aa6117d76123ec565b336000908152600080516020612c1f833981519152602052604090205460ff16801561180c575b611807906126fc565b6128c5565b50336000908152600080516020612c7f833981519152602052604090205460ff166117fe565b346101665760403660031901126101665760043561184e6123d6565b8160005260206001815260406000209161186d600484015415156125e1565b6001600160a01b039081169283156119b357541633148015611983575b8015611965575b61189a906126be565b600080516020612c3f83398151915260005260008152604060002082600052815260ff60406000205416611915575b826000526002815260406000209082600052526040600020600160ff1982541617905533917f7aeffe35f64b55a7c424c5fccc3fba0f3ac4ebd764cc737855b8734834458f2b600080a4005b60038152604060002080546801000000000000000081101561055f576001810180835581101561194f5784916000528260002001556118c9565b634e487b7160e01b600052603260045260246000fd5b5060008080528082526040808220338352835290205460ff16611891565b50600080516020612c5f83398151915260005260008152604060002033600052815260ff6040600020541661188a565b60405162461bcd60e51b815260048101849052600b60248201526a626164206772616e74656560a81b6044820152606490fd5b34610166576040366003190112610166576119ff6123d6565b336001600160a01b03821603611a1b576101aa90600435612b89565b60405163334bd91960e11b8152600490fd5b34610166576040366003190112610166576101aa600435611a4c6123d6565b90806000526000602052611a67600160406000200154612881565b612a89565b346101665760203660031901126101665760043560005260006020526020600160406000200154604051908152f35b3461016657602080600319360112610166576004358060005260018252604060002090600482015490611acf8215156125e1565b600080516020612c5f83398151915260005260008452604060002033600052845260ff60406000205416908115611bcc575b8115611bb8575b8115611b95575b5015611b645761172460018060a01b0392611716848254169460018301541691611b476003611b4060028401612619565b9201612619565b92604051978897885287015260a0604087015260a086019061242f565b60405162461bcd60e51b81526004810184905260096024820152686e6f2061636365737360b81b6044820152606490fd5b905060005260028352604060002033600052835260ff6040600020541684611b0f565b83546001600160a01b031633149150611b08565b90506000805260008452604060002033600052845260ff6040600020541690611b01565b34610166576060366003190112610166576001600160401b0360043560243582811161016657611c24903690600401612402565b60443584811161016657611c3c903690600401612402565b846000969296526001916020928084526040600020611c60600482015415156125e1565b600080516020612c5f83398151915260005260008552604060002033600052855260ff604060002054168015611f09575b8015611ef6575b8015611ed4575b15611e9f57600281019083871161055f57611cbe876104838454612530565b60009187601f8111600114611e335780611cf191600395600091611e28575b508160011b916000199060031b1c19161790565b90555b0191831161055f57611d0a836104838454612530565b600090601f8411600114611d9c5750917f8f9586b5cb9b032c0c4e4176d5e760b09b3ab8ebef35a13a6edd4e28f13d858495949391611d638280611d8c96600091611d9157508160011b916000199060031b1c19161790565b90555b611d7d6040519586956040875260408701916125c0565b918483039085015233976125c0565b0390a3005b90508b01358c611cdd565b90601f1984169083600052856000209160005b8b828210611e1457505091859391611d8c967f8f9586b5cb9b032c0c4e4176d5e760b09b3ab8ebef35a13a6edd4e28f13d85849a9998969410611dfa575b505082811b019055611d66565b8b0135600019600386901b60f8161c191690558a80611ded565b830135845592840192918701918701611daf565b90508b01358e611cdd565b508892601f198916908260005289896000209260005b8b89838310611e85575050506003965010611e6d575b50508388811b019055611cf4565b8a01356000198a861b60f8161c191690558b80611e5f565b9885013586558e989590950194938401938d935001611e49565b60405162461bcd60e51b815260048101869052600d60248201526c3737903832b936b4b9b9b4b7b760991b6044820152606490fd5b508760005260028552604060002033600052855260ff60406000205416611c9f565b5080546001600160a01b03163314611c98565b506000805260008552604060002033600052855260ff60406000205416611c91565b3461016657608036600319011261016657611f446123d6565b6001600160401b0360443581811161016657611f64903690600401612402565b909160643581811161016657611f7e903690600401612402565b3360009081527fdf1cb6f79b8687a60e91aced08290a53cb47a179b80c0c7c836d1c923c9a5647602052604090205460ff16801561235d575b8015612337575b611fc79061246f565b6001600160a01b0392868416156122ff5760043560005260016020526004604060002001546122d15760405191611ffd836124ae565b8488168352612027602084019433865261201836898b6124ea565b926040860193845236916124ea565b60608401524260808401526004356000526001602052604060002093858451166001600160601b0360a01b908187541617865586600187019251169082541617905560028401905180519083821161055f5761208782610c1a8554612530565b602090601f8311600114612269576120b792916000918361225e5750508160011b916000199060031b1c19161790565b90555b6060820151805191821161055f576120e2826120d96003870154612530565b6003870161256a565b602090601f83116001146121c4577e73d3c2a84f8f8e279a002e4d9d8aed780efae1e49ef555bd671d416a3f9d86959361213d846121b497956004956080956000926121b95750508160011b916000199060031b1c19161790565b60038501555b015191015560043560005260026020526040600020818716600052602052604060002060ff19906001828254161790556004356000526002602052604060002033600052602052600160406000209182541617905560405191829160208352339716956004359560208401916125c0565b0390a4005b015190508d8061037b565b906003850160005260206000209160005b601f19851681106122465750936001846004946080947e73d3c2a84f8f8e279a002e4d9d8aed780efae1e49ef555bd671d416a3f9d869a986121b49a98601f1981161061222d575b505050811b016003850155612143565b015160001960f88460031b161c191690558c808061221d565b919260206001819286850151815501940192016121d5565b015190508b8061037b565b90601f198316918460005260206000209260005b8181106122b957509084600195949392106122a0575b505050811b0190556120ba565b015160001960f88460031b161c191690558a8080612293565b9293602060018192878601518155019501930161227d565b60405162461bcd60e51b815260206004820152600660248201526565786973747360d01b6044820152606490fd5b60405162461bcd60e51b815260206004820152601060248201526f1c185d1a595b9d081c995c5d5a5c995960821b6044820152606490fd5b50336000908152600080516020612c7f833981519152602052604090205460ff16611fbe565b50336000908152600080516020612c1f833981519152602052604090205460ff16611fb7565b34610166576020366003190112610166576004359063ffffffff60e01b821680920361016657602091637965db0b60e01b81149081156123c5575b5015158152f35b6301ffc9a760e01b149050836123be565b602435906001600160a01b038216820361016657565b600435906001600160a01b038216820361016657565b9181601f84011215610166578235916001600160401b038311610166576020838186019501011161016657565b919082519283825260005b84811061245b575050826000602080949584010152601f8019910116010190565b60208183018101518483018201520161243a565b1561247657565b60405162461bcd60e51b815260206004820152601060248201526f3737ba103237b1ba37b917b0b236b4b760811b6044820152606490fd5b60a081019081106001600160401b0382111761055f57604052565b90601f801991011681019081106001600160401b0382111761055f57604052565b9291926001600160401b03821161055f5760405191612513601f8201601f1916602001846124c9565b829481845281830111610166578281602093846000960137010152565b90600182811c92168015612560575b602083101461254a57565b634e487b7160e01b600052602260045260246000fd5b91607f169161253f565b90601f811161257857505050565b6000916000526020600020906020601f850160051c830194106125b6575b601f0160051c01915b8281106125ab57505050565b81815560010161259f565b9092508290612596565b908060209392818452848401376000828201840152601f01601f1916010190565b156125e857565b60405162461bcd60e51b81526020600482015260096024820152681b9bdd08199bdd5b9960ba1b6044820152606490fd5b9060405191826000825461262c81612530565b9081845260209460019160018116908160001461269c575060011461265d575b50505061265b925003836124c9565b565b600090815285812095935091905b81831061268457505061265b935082010138808061264c565b8554888401850152948501948794509183019161266b565b9250505061265b94925060ff191682840152151560051b82010138808061264c565b156126c557565b60405162461bcd60e51b815260206004820152600f60248201526e3737ba1037bbb732b917b0b236b4b760891b6044820152606490fd5b1561270357565b60405162461bcd60e51b81526020600482015260096024820152683737ba1030b236b4b760b91b6044820152606490fd5b1561273b57565b60405162461bcd60e51b815260206004820152602960248201527f43616e206f6e6c7920726567697374657220796f757273656c66206f722062656044820152681030b71030b236b4b760b91b6064820152608490fd5b1561279957565b60405162461bcd60e51b815260206004820152601c60248201527f4848204e756d62657220616c72656164792072656769737465726564000000006044820152606490fd5b9060008281526020916001835260409283832060048101541561287857546001600160a01b039283169216821461285357600080516020612c5f8339815191528352828152838320828452815260ff8484205416801561285d575b6128535760ff948352600281528383209183525220541690565b5050505050600190565b50828052828152838320828452815260ff8484205416612839565b50505091505090565b80600052600060205260406000203360005260205260ff60406000205416156128a75750565b6044906040519063e2517d3f60e01b82523360048301526024820152fd5b6001600160a01b031660008181527fdf1cb6f79b8687a60e91aced08290a53cb47a179b80c0c7c836d1c923c9a56476020526040812054909190600080516020612c3f8339815191529060ff1661294e57808352826020526040832082845260205260408320600160ff19825416179055600080516020612bff833981519152339380a4600190565b505090565b6001600160a01b031660008181527f01269c68c28a67305f4a2d47532888d6c961251cfcb06c9cdb6066d32b24b32060205260408120549091907f72606200fac42b7dc86b75901d61ecfab2a4a1a6eded478b97a428094891abed9060ff1661294e57808352826020526040832082845260205260408320600160ff19825416179055600080516020612bff833981519152339380a4600190565b6001600160a01b031660008181527f232d22163c77b4a0f291591077ef3091c0cb2e3ee6d9de0538d0edea819cad5a60205260408120549091907f365427a77302f6c15e25fbb39b2016b6cfdc7982b9e30691e61947a1d364ea909060ff1661294e57808352826020526040832082845260205260408320600160ff19825416179055600080516020612bff833981519152339380a4600190565b9060009180835282602052604083209160018060a01b03169182845260205260ff6040842054161560001461294e57808352826020526040832082845260205260408320600160ff19825416179055600080516020612bff833981519152339380a4600190565b6001600160a01b031660008181527fdf1cb6f79b8687a60e91aced08290a53cb47a179b80c0c7c836d1c923c9a56476020526040812054909190600080516020612c3f8339815191529060ff161561294e5780835282602052604083208284526020526040832060ff1981541690557ff6391f5c32d9c69d2a47ea670b442974b53935d1edc7fd64eb21e047a839171b339380a4600190565b9060009180835282602052604083209160018060a01b03169182845260205260ff60408420541660001461294e5780835282602052604083208284526020526040832060ff1981541690557ff6391f5c32d9c69d2a47ea670b442974b53935d1edc7fd64eb21e047a839171b339380a460019056fe2f8788117e7eff1d82e926ec794901d17c78024a50270940304540a733656f0d7d7ffb7a348e1c6a02869081a26547b49160dd3df72d1d75a570eb9b698292ec0af1dac7dea2fd7f7738119cec7df099dfad49aa9d2e7d17ba6b60f63ae7411fa49807205ce4d355092ef5a8a18f56e8913cf4a201fbe287825b095693c21775ad3228b676f7d3cd4284a5443f17f1962b36e491b30a40b2405849e597ba5fb5a26469706673582212201e97c877320f2de88b6a43b04fba59129cf55584abc1e620c0b86b768f04f5fb64736f6c634300081800332f8788117e7eff1d82e926ec794901d17c78024a50270940304540a733656f0d",
  "linkReferences": {},
  "deployedLinkReferences": {}
}