{
  "_format": "hh-sol-artifact-1",
  "contractName": "HealthLedger",
  "sourceName": "contracts/HealthLedger.sol",
  "abi": [
    {
      "inputs": [
        {
          "internalType": "address",
          "name": "admin",
          "type": "address"
        }
      ],
      "stateMutability": "nonpayable",
      "type": "constructor"
    },
    {
      "inputs": [],
      "name": "AccessControlBadConfirmation",
      "type": "error"
    },
    {
      "inputs": [
        {
          "internalType": "address",
          "name": "account",
          "type": "address"
        },
        {
          "internalType": "bytes32",
          "name": "neededRole",
          "type": "bytes32"
        }
      ],
      "name": "AccessControlUnauthorizedAccount",
      "type": "error"
    },
    {
      "anonymous": false,
      "inputs": [
        {
          "indexed": true,
          "internalType": "bytes32",
          "name": "recordId",
          "type": "bytes32"
        },
        {
          "indexed": true,
          "internalType": "address",
          "name": "grantee",
          "type": "address"
        },
        {
          "indexed": true,
          "internalType": "address",
          "name": "granter",
          "type": "address"
        }
      ],
      "name": "AccessGranted",
      "type": "event"
    },
    {
      "anonymous": false,
      "inputs": [
        {
          "indexed": true,
          "internalType": "bytes32",
          "name": "recordId",
          "type": "bytes32"
        },
        {
          "indexed": true,
          "internalType": "address",
          "name": "grantee",
          "type": "address"
        },
        {
          "indexed": true,
          "internalType": "address",
          "name": "revoker",
          "type": "address"
        }
      ],
      "name": "AccessRevoked",
      "type": "event"
    },
    {
      "anonymous": false,
      "inputs": [
        {
          "indexed": true,
          "internalType": "bytes32",
          "name": "recordId",
          "type": "bytes32"
        },
        {
          "indexed": true,
          "internalType": "address",
          "name": "patient",
          "type": "address"
        },
        {
          "indexed": true,
          "internalType": "address",
          "name": "createdBy",
          "type": "address"
        },
        {
          "indexed": false,
          "internalType": "string",
          "name": "cid",
          "type": "string"
        }
      ],
      "name": "RecordCreated",
      "type": "event"
    },
    {
      "anonymous": false,
      "inputs": [
        {
          "indexed": true,
          "internalType": "bytes32",
          "name": "recordId",
          "type": "bytes32"
        },
        {
          "indexed": false,
          "internalType": "string",
          "name": "newCid",
          "type": "string"
        },
        {
          "indexed": false,
          "internalType": "string",
          "name": "newMeta",
          "type": "string"
        },
        {
          "indexed": true,
          "internalType": "address",
          "name": "updater",
          "type": "address"
        }
      ],
      "name": "RecordUpdated",
      "type": "event"
    },
    {
      "anonymous": false,
      "inputs": [
        {
          "indexed": true,
          "internalType": "bytes32",
          "name": "role",
          "type": "bytes32"
        },
        {
          "indexed": true,
          "internalType": "bytes32",
          "name": "previousAdminRole",
          "type": "bytes32"
        },
        {
          "indexed": true,
          "internalType": "bytes32",
          "name": "newAdminRole",
          "type": "bytes32"
        }
      ],
      "name": "RoleAdminChanged",
      "type": "event"
    },
    {
      "anonymous": false,
      "inputs": [
        {
          "indexed": true,
          "internalType": "bytes32",
          "name": "role",
          "type": "bytes32"
        },
        {
          "indexed": true,
          "internalType": "address",
          "name": "account",
          "type": "address"
        },
        {
          "indexed": true,
          "internalType": "address",
          "name": "sender",
          "type": "address"
        }
      ],
      "name": "RoleGranted",
      "type": "event"
    },
    {
      "anonymous": false,
      "inputs": [
        {
          "indexed": true,
          "internalType": "bytes32",
          "name": "role",
          "type": "bytes32"
        },
        {
          "indexed": true,
          "internalType": "address",
          "name": "account",
          "type": "address"
        },
        {
          "indexed": true,
          "internalType": "address",
          "name": "sender",
          "type": "address"
        }
      ],
      "name": "RoleRevoked",
      "type": "event"
    },
    {
      "inputs": [],
      "name": "ADMIN_ROLE",
      "outputs": [
        {
          "internalType": "bytes32",
          "name": "",
          "type": "bytes32"
        }
      ],
      "stateMutability": "view",
      "type": "function"
    },
    {
      "inputs": [],
      "name": "DEFAULT_ADMIN_ROLE",
      "outputs": [
        {
          "internalType": "bytes32",
          "name": "",
          "type": "bytes32"
        }
      ],
      "stateMutability": "view",
      "type": "function"
    },
    {
      "inputs": [],
      "name": "DIAGNOSTIC_ROLE",
      "outputs": [
        {
          "internalType": "bytes32",
          "name": "",
          "type": "bytes32"
        }
      ],
      "stateMutability": "view",
      "type": "function"
    },
    {
      "inputs": [],
      "name": "DOCTOR_ROLE",
      "outputs": [
        {
          "internalType": "bytes32",
          "name": "",
          "type": "bytes32"
        }
      ],
      "stateMutability": "view",
      "type": "function"
    },
    {
      "inputs": [],
      "name": "PATIENT_ROLE",
      "outputs": [
        {
          "internalType": "bytes32",
          "name": "",
          "type": "bytes32"
        }
      ],
      "stateMutability": "view",
      "type": "function"
    },
    {
      "inputs": [
        {
          "internalType": "address",
          "name": "account",
          "type": "address"
        }
      ],
      "name": "addDoctor",
      "outputs": [],
      "stateMutability": "nonpayable",
      "type": "function"
    },
    {
      "inputs": [
        {
          "internalType": "bytes32",
          "name": "recordId",
          "type": "bytes32"
        },
        {
          "internalType": "address",
          "name": "patient",
          "type": "address"
        },
        {
          "internalType": "string",
          "name": "cid",
          "type": "string"
        },
        {
          "internalType": "string",
          "name": "meta",
          "type": "string"
        }
      ],
      "name": "createRecord",
      "outputs": [],
      "stateMutability": "nonpayable",
      "type": "function"
    },
    {
      "inputs": [
        {
          "internalType": "uint256",
          "name": "hhNumber",
          "type": "uint256"
        }
      ],
      "name": "getDiagnostic",
      "outputs": [
        {
          "internalType": "string",
          "name": "",
          "type": "string"
        },
        {
          "internalType": "string",
          "name": "",
          "type": "string"
        },
        {
          "internalType": "string",
          "name": "",
          "type": "string"
        },
        {
          "internalType": "address",
          "name": "",
          "type": "address"
        }
      ],
      "stateMutability": "view",
      "type": "function"
    },
    {
      "inputs": [
        {
          "internalType": "uint256",
          "name": "hhNumber",
          "type": "uint256"
        }
      ],
      "name": "getDoctor",
      "outputs": [
        {
          "internalType": "string",
          "name": "",
          "type": "string"
        },
        {
          "internalType": "string",
          "name": "",
          "type": "string"
        },
        {
          "internalType": "string",
          "name": "",
          "type": "string"
        },
        {
          "internalType": "string",
          "name": "",
          "type": "string"
        },
        {
          "internalType": "address",
          "name": "",
          "type": "address"
        }
      ],
      "stateMutability": "view",
      "type": "function"
    },
    {
      "inputs": [
        {
          "internalType": "address",
          "name": "doctor",
          "type": "address"
        }
      ],
      "name": "getDoctorPatients",
      "outputs": [
        {
          "internalType": "bytes32[]",
          "name": "",
          "type": "bytes32[]"
        }
      ],
      "stateMutability": "view",
      "type": "function"
    },
    {
      "inputs": [
        {
          "internalType": "uint256",
          "name": "hhNumber",
          "type": "uint256"
        }
      ],
      "name": "getPatient",
      "outputs": [
        {
          "internalType": "string",
          "name": "",
          "type": "string"
        },
        {
          "internalType": "uint256",
          "name": "",
          "type": "uint256"
        },
        {
          "internalType": "string",
          "name": "",
          "type": "string"
        },
        {
          "internalType": "string",
          "name": "",
          "type": "string"
        },
        {
          "internalType": "string",
          "name": "",
          "type": "string"
        },
        {
          "internalType": "string",
          "name": "",
          "type": "string"
        },
        {
          "internalType": "address",
          "name": "",
          "type": "address"
        }
      ],
      "stateMutability": "view",
      "type": "function"
    },
    {
      "inputs": [
        {
          "internalType": "bytes32",
          "name": "recordId",
          "type": "bytes32"
        }
      ],
      "name": "getRecord",
      "outputs": [
        {
          "internalType": "address",
          "name": "patient",
          "type": "address"
        },
        {
          "internalType": "address",
          "name": "createdBy",
          "type": "address"
        },
        {
          "internalType": "string",
          "name": "cid",
          "type": "string"
        },
        {
          "internalType": "string",
          "name": "meta",
          "type": "string"
        },
        {
          "internalType": "uint256",
          "name": "createdAt",
          "type": "uint256"
        }
      ],
      "stateMutability": "view",
      "type": "function"
    },
    {
      "inputs": [
        {
          "internalType": "bytes32",
          "name": "role",
          "type": "bytes32"
        }
      ],
      "name": "getRoleAdmin",
      "outputs": [
        {
          "internalType": "bytes32",
          "name": "",
          "type": "bytes32"
        }
      ],
      "stateMutability": "view",
      "type": "function"
    },
    {
      "inputs": [
        {
          "internalType": "bytes32",
          "name": "recordId",
          "type": "bytes32"
        },
        {
          "internalType": "address",
          "name": "grantee",
          "type": "address"
        }
      ],
      "name": "grantAccess",
      "outputs": [],
      "stateMutability": "nonpayable",
      "type": "function"
    },
    {
      "inputs": [
        {
          "internalType": "bytes32",
          "name": "role",
          "type": "bytes32"
        },
        {
          "internalType": "address",
          "name": "account",
          "type": "address"
        }
      ],
      "name": "grantRole",
      "outputs": [],
      "stateMutability": "nonpayable",
      "type": "function"
    },
    {
      "inputs": [
        {
          "internalType": "bytes32",
          "name": "recordId",
          "type": "bytes32"
        },
        {
          "internalType": "address",
          "name": "account",
          "type": "address"
        }
      ],
      "name": "hasAccess",
      "outputs": [
        {
          "internalType": "bool",
          "name": "",
          "type": "bool"
        }
      ],
      "stateMutability": "view",
      "type": "function"
    },
    {
      "inputs": [
        {
          "internalType": "bytes32",
          "name": "role",
          "type": "bytes32"
        },
        {
          "internalType": "address",
          "name": "account",
          "type": "address"
        }
      ],
      "name": "hasRole",
      "outputs": [
        {
          "internalType": "bool",
          "name": "",
          "type": "bool"
        }
      ],
      "stateMutability": "view",
      "type": "function"
    },
    {
      "inputs": [
        {
          "internalType": "string",
          "name": "name",
          "type": "string"
        },
        {
          "internalType": "string",
          "name": "location",
          "type": "string"
        },
        {
          "internalType": "string",
          "name": "email",
          "type": "string"
        },
        {
          "internalType": "uint256",
          "name": "hhNumber",
          "type": "uint256"
        },
        {
          "internalType": "address",
          "name": "walletAddress",
          "type": "address"
        }
      ],
      "name": "registerDiagnostic",
      "outputs": [],
      "stateMutability": "nonpayable",
      "type": "function"
    },
    {
      "inputs": [
        {
          "internalType": "string",
          "name": "name",
          "type": "string"
        },
        {
          "internalType": "string",
          "name": "specialization",
          "type": "string"
        },
        {
          "internalType": "string",
          "name": "hospital",
          "type": "string"
        },
        {
          "internalType": "string",
          "name": "email",
          "type": "string"
        },
        {
          "internalType": "uint256",
          "name": "hhNumber",
          "type": "uint256"
        },
        {
          "internalType": "address",
          "name": "walletAddress",
          "type": "address"
        }
      ],
      "name": "registerDoctor",
      "outputs": [],
      "stateMutability": "nonpayable",
      "type": "function"
    },
    {
      "inputs": [
        {
          "internalType": "string",
          "name": "name",
          "type": "string"
        },
        {
          "internalType": "uint256",
          "name": "dob",
          "type": "uint256"
        },
        {
          "internalType": "string",
          "name": "gender",
          "type": "string"
        },
        {
          "internalType": "string",
          "name": "bloodGroup",
          "type": "string"
        },
        {
          "internalType": "string",
          "name": "homeAddress",
          "type": "string"
        },
        {
          "internalType": "string",
          "name": "email",
          "type": "string"
        },
        {
          "internalType": "uint256",
          "name": "hhNumber",
          "type": "uint256"
        },
        {
          "internalType": "address",
          "name": "walletAddress",
          "type": "address"
        }
      ],
      "name": "registerPatient",
      "outputs": [],
      "stateMutability": "nonpayable",
      "type": "function"
    },
    {
      "inputs": [
        {
          "internalType": "address",
          "name": "account",
          "type": "address"
        }
      ],
      "name": "removeDoctor",
      "outputs": [],
      "stateMutability": "nonpayable",
      "type": "function"
    },
    {
      "inputs": [
        {
          "internalType": "bytes32",
          "name": "role",
          "type": "bytes32"
        },
        {
          "internalType": "address",
          "name": "callerConfirmation",
          "type": "address"
        }
      ],
      "name": "renounceRole",
      "outputs": [],
      "stateMutability": "nonpayable",
      "type": "function"
    },
    {
      "inputs": [
        {
          "internalType": "bytes32",
          "name": "recordId",
          "type": "bytes32"
        },
        {
          "internalType": "address",
          "name": "grantee",
          "type": "address"
        }
      ],
      "name": "revokeAccess",
      "outputs": [],
      "stateMutability": "nonpayable",
      "type": "function"
    },
    {
      "inputs": [
        {
          "internalType": "bytes32",
          "name": "role",
          "type": "bytes32"
        },
        {
          "internalType": "address",
          "name": "account",
          "type": "address"
        }
      ],
      "name": "revokeRole",
      "outputs": [],
      "stateMutability": "nonpayable",
      "type": "function"
    },
    {
      "inputs": [
        {
          "internalType": "bytes4",
          "name": "interfaceId",
          "type": "bytes4"
        }
      ],
      "name": "supportsInterface",
      "outputs": [
        {
          "internalType": "bool",
          "name": "",
          "type": "bool"
        }
      ],
      "stateMutability": "view",
      "type": "function"
    },
    {
      "inputs": [
        {
          "internalType": "bytes32",
          "name": "recordId",
          "type": "bytes32"
        },
        {
          "internalType": "string",
          "name": "newCid",
          "type": "string"
        },
        {
          "internalType": "string",
          "name": "newMeta",
          "type": "string"
        }
      ],
      "name": "updateRecord",
      "outputs": [],
      "stateMutability": "nonpayable",
      "type": "function"
    }
  ],
  "bytecode": "0x608034620000b957601f62002df438819003918201601f19168301916001600160401b03831184841017620000be57808492602094604052833981010312620000b957516001600160a01b038116808203620000b957156200008357806200006b6200007292620000d4565b5062000154565b50604051612bdd9081620001f78239f35b60405162461bcd60e51b815260206004820152600e60248201526d18591b5a5b881c995c5d5a5c995960921b6044820152606490fd5b600080fd5b634e487b7160e01b600052604160045260246000fd5b6001600160a01b031660008181527fad3228b676f7d3cd4284a5443f17f1962b36e491b30a40b2405849e597ba5fb5602052604081205490919060ff166200015057818052816020526040822081835260205260408220600160ff19825416179055339160008051602062002dd48339815191528180a4600190565b5090565b6001600160a01b031660008181527f7d7ffb7a348e1c6a02869081a26547b49160dd3df72d1d75a570eb9b698292ec60205260408120549091907fa49807205ce4d355092ef5a8a18f56e8913cf4a201fbe287825b095693c217759060ff16620001f157808352826020526040832082845260205260408320600160ff1982541617905560008051602062002dd4833981519152339380a4600190565b50509056fe608080604052600436101561001357600080fd5b60003560e01c90816301ffc9a7146122de5750806307b702ba14611e625780630fdf5ca714611b27578063213681cd146119d2578063248a9ca3146119a35780632f2ff15d1461196457806336568abe1461191d57806340554c3a146117695780634780468f146116ce5780635ef33cfe1461164157806369b0a72d1461158f57806375b238fc146115665780637806d4f914610fd15780637d3a679614610ef657806383177db314610ec65780638d53b20814610dcd57806390ec8af314610a1e57806391d14854146109d157806398fc90e914610936578063a217fddf1461091a578063ac5cb97d146108df578063ba508467146106c1578063c6a33ef9146101e7578063c7cdf5af146101ac578063d547741f1461016b5763fec331f21461013d57600080fd5b34610166576000366003190112610166576020604051600080516020612b688339815191528152f35b600080fd5b34610166576040366003190112610166576101aa60043561018a612331565b908060005260006020526101a56001604060002001546127ca565b612ad2565b005b346101665760003660031901126101665760206040517f365427a77302f6c15e25fbb39b2016b6cfdc7982b9e30691e61947a1d364ea908152f35b346101665760c0366003190112610166576004356001600160401b0381116101665761021790369060040161235d565b906024356001600160401b0381116101665761023790369060040161235d565b6044929192356001600160401b0381116101665761025990369060040161235d565b9290916064356001600160401b0381116101665761027b90369060040161235d565b966084359460a4356001600160a01b0381169590869003610166576102e398610311956102ea6102f393610302966102b48b331461268f565b60008c8152600560205260409020600401546102d9906001600160a01b0316156126db565b6040519d8e612409565b3691612445565b8b523691612445565b96602089019788523691612445565b96604087019788523691612445565b60608501526080840152600052600560205260406000209082518051906001600160401b038211610550576103508261034a865461248b565b866124c5565b602090601f8311600114610659576103819291600091836104db575b50508160011b916000199060031b1c19161790565b82555b519283516001600160401b038111610550576103b0816103a7600186015461248b565b600186016124c5565b6020601f82116001146105ea5781906103e2939495966000926105df5750508160011b916000199060031b1c19161790565b60018301555b519182516001600160401b038111610550576104148161040b600286015461248b565b600286016124c5565b6020601f82116001146105715781906104459394956000926105665750508160011b916000199060031b1c19161790565b60028301555b600382019160608201519283516001600160401b0381116105505761047a81610474845461248b565b846124c5565b6020601f82116001146104e65790806104ad92600496976000926104db5750508160011b916000199060031b1c19161790565b90555b0190608060018060a01b03910151166001600160601b0360a01b8254161790556101aa60a43561280e565b01519050878061036c565b601f198216958360005260206000209660005b818110610538575091600496979184600195941061051f575b505050811b0190556104b0565b015160001960f88460031b161c19169055868080610512565b838301518955600190980197602093840193016104f9565b634e487b7160e01b600052604160045260246000fd5b01519050858061036c565b6002840160005260206000209060005b601f19841681106105c75750600193949583601f198116106105ae575b505050811b01600283015561044b565b015160001960f88460031b161c1916905584808061059e565b9091602060018192858a015181550193019101610581565b01519050868061036c565b6001840160005260206000209060005b601f1984168110610641575060019394959683601f19811610610628575b505050811b0160018301556103e8565b015160001960f88460031b161c19169055858080610618565b9091602060018192858b0151815501930191016105fa565b90601f198316918560005260206000209260005b8181106106a95750908460019594939210610690575b505050811b018255610384565b015160001960f88460031b161c19169055868080610683565b9293602060018192878601518155019501930161066d565b3461016657602080600319360112610166576106db612347565b600080516020612b6883398151915260005260008252604060002033600052825260ff6040600020541680156108af575b8015610891575b61071c906123ca565b6001600160a01b0316801561085a57803314801561082a575b8015610808575b156107d25760005260038152604060002060405190818382549182815201908192600052846000209060005b868282106107be57868661077e82880383612424565b604051928392818401908285525180915260408401929160005b8281106107a757505050500390f35b835185528695509381019392810192600101610798565b835485529093019260019283019201610768565b60405162461bcd60e51b815260048101839052600e60248201526d1b9bdd08185d5d1a1bdc9a5e995960921b6044820152606490fd5b506000805260008252604060002033600052825260ff6040600020541661073c565b50600080516020612b8883398151915260005260008252604060002033600052825260ff60406000205416610735565b60405162461bcd60e51b815260048101839052600f60248201526e191bd8dd1bdc881c995c5d5a5c9959608a1b6044820152606490fd5b5060008080528083526040808220338352845290205460ff16610713565b50600080516020612b8883398151915260005260008252604060002033600052825260ff6040600020541661070c565b346101665760003660031901126101665760206040517f72606200fac42b7dc86b75901d61ecfab2a4a1a6eded478b97a428094891abed8152f35b3461016657600036600319011261016657602060405160008152f35b34610166576020366003190112610166576101aa610952612347565b3360009081527f7d7ffb7a348e1c6a02869081a26547b49160dd3df72d1d75a570eb9b698292ec602052604090205460ff168015610999575b61099490612657565b612a39565b503360009081527fad3228b676f7d3cd4284a5443f17f1962b36e491b30a40b2405849e597ba5fb5602052604090205460ff1661098b565b34610166576040366003190112610166576109ea612331565b600435600052600060205260406000209060018060a01b0316600052602052602060ff604060002054166040519015158152f35b346101665760a0366003190112610166576004356001600160401b03811161016657610a4e90369060040161235d565b6024356001600160401b03811161016657610a6d90369060040161235d565b91906044356001600160401b03811161016657610a8e90369060040161235d565b9490916084356001600160a01b038116900361016657610aba336084356001600160a01b03161461268f565b606435600090815260066020526040902060030154610ae2906001600160a01b0316156126db565b604051948560808101106001600160401b0360808801111761055057610b17610b2093610b2f96608089016040523691612445565b86523691612445565b93602084019485523691612445565b9060408101918252606081019160018060a01b036084351683526064356000526006602052604060002091518051906001600160401b03821161055057610b7a8261034a865461248b565b602090601f8311600114610d6557610baa9291600091836104db5750508160011b916000199060031b1c19161790565b82555b60019384830190518051906001600160401b03821161055057610bda82610bd4855461248b565b856124c5565b602090601f8311600114610d0257610c0a929160009183610cf75750508160011b916000199060031b1c19161790565b90555b600282019051938451906001600160401b03821161055057610c3382610bd4855461248b565b602090601f8311600114610c9357509080610c6892600396976000926104db5750508160011b916000199060031b1c19161790565b90555b019060018060a01b039051166001600160601b0360a01b8254161790556101aa608435612937565b9190601f198216908460005260206000209160005b818110610ce1575097836003989910610cc9575b505050811b019055610c6b565b015160001983881b60f8161c19169055868080610cbc565b8983015184559285019260209283019201610ca8565b01519050888061036c565b879291601f198316918560005260206000209260005b818110610d4d57508411610d34575b505050811b019055610c0d565b015160001960f88460031b161c19169055878080610d27565b8284015185558b969094019360209384019301610d18565b90601f198316918560005260206000209260005b818110610db55750908460019594939210610d9c575b505050811b018255610bad565b015160001960f88460031b161c19169055868080610d8f565b92936020600181928786015181550195019301610d79565b3461016657604036600319011261016657600435610de9612331565b81600052602090600182526040600020610e086004820154151561253c565b546001600160a01b0390811633148015610e96575b8015610e78575b610e2d90612619565b836000526002835260406000209116918260005252604060002060ff19815416905533917ffab19bdeacf1ea13315b1da3f79a3403fe4f16793b6a03eeff9e0bbbea24fe5f600080a4005b5060008080528084526040808220338352855290205460ff16610e24565b50600080516020612b8883398151915260005260008352604060002033600052835260ff60406000205416610e1d565b34610166576040366003190112610166576020610eec610ee4612331565b600435612727565b6040519015158152f35b34610166576020366003190112610166576004356000526004602052610f8a60406000206001810154610fc760018060a01b0360068401541691610fb9610f3c85612574565b94610fab610f4c60028301612574565b93610f9d610f5c60038501612574565b91610f756005610f6e60048801612574565b9601612574565b966040519b8c9b60e08d5260e08d019061238a565b9160208c01528a820360408c015261238a565b9088820360608a015261238a565b90868203608088015261238a565b9084820360a086015261238a565b9060c08301520390f35b3461016657610100366003190112610166576004356001600160401b0381116101665761100290369060040161235d565b6044356001600160401b0381116101665761102190369060040161235d565b90916064356001600160401b0381116101665761104290369060040161235d565b9290916084356001600160401b0381116101665761106490369060040161235d565b909160a4356001600160401b0381116101665761108590369060040161235d565b909690959060e4356001600160a01b0381169003610166576110b33360e4356001600160a01b03161461268f565b60c4356000908152600460205260409020600601546110db906001600160a01b0316156126db565b604051998a60e08101106001600160401b0360e08d0111176105505761114d996111419761111861112993611135978f60e0016040523691612445565b8d5260243560208e01523691612445565b60408b01523691612445565b60608801523691612445565b60808501523691612445565b60a082015260018060a01b0360e4351660c082015260c4356000526004602052604060002081519182516001600160401b0381116105505761119381610bd4855461248b565b6020601f82116001146114fe5781906111c49394956000926105665750508160011b916000199060031b1c19161790565b82555b6001916020820151838201556002810160408301518051906001600160401b038211610550576111fb82610bd4855461248b565b602090601f831160011461149b5761122b9291600091836104db5750508160011b916000199060031b1c19161790565b90555b6003810160608301518051906001600160401b0382116105505761125682610bd4855461248b565b602090601f8311600114611438576112869291600091836104db5750508160011b916000199060031b1c19161790565b90555b6004810160808301518051906001600160401b038211610550576112b182610bd4855461248b565b602090601f83116001146113d5576112e19291600091836104db5750508160011b916000199060031b1c19161790565b90555b6005810160a0830151938451906001600160401b0382116105505761130d82610bd4855461248b565b602090601f83116001146113705750908061134292600696976000926104db5750508160011b916000199060031b1c19161790565b90555b019060c060018060a01b03910151166001600160601b0360a01b8254161790556101aa60e43561289c565b9190601f198216908460005260206000209160005b8181106113bf5750978360069899106113a6575b505050811b019055611345565b015160001960f88460031b161c19169055868080611399565b8983015184559285019260209283019201611385565b869291601f198316918560005260206000209260005b81811061142057508411611407575b505050811b0190556112e4565b015160001960f88460031b161c191690558680806113fa565b8284015185558a9690940193602093840193016113eb565b869291601f198316918560005260206000209260005b8181106114835750841161146a575b505050811b019055611289565b015160001960f88460031b161c1916905586808061145d565b8284015185558a96909401936020938401930161144e565b869291601f198316918560005260206000209260005b8181106114e6575084116114cd575b505050811b01905561122e565b015160001960f88460031b161c191690558680806114c0565b8284015185558a9690940193602093840193016114b1565b8360005260206000209060005b601f198416811061154e5750600193949583601f19811610611535575b505050811b0182556111c7565b015160001960f88460031b161c19169055848080611528565b9091602060018192858a01518155019301910161150b565b34610166576000366003190112610166576020604051600080516020612b888339815191528152f35b3461016657602036600319011261016657600435600052600560205261160d604060002060018060a01b036004820154166116376115cc83612574565b926116296115dc60018301612574565b9161161b6115f860036115f160028501612574565b9301612574565b9360405198899860a08a5260a08a019061238a565b9088820360208a015261238a565b90868203604088015261238a565b90848203606086015261238a565b9060808301520390f35b346101665760203660031901126101665760043560005260066020526116a8604060002060018060a01b036003820154166116c461167e83612574565b926116b661169360026115f160018501612574565b9160405196879660808852608088019061238a565b90868203602088015261238a565b90848203604086015261238a565b9060608301520390f35b34610166576020366003190112610166576101aa6116ea612347565b3360009081527f7d7ffb7a348e1c6a02869081a26547b49160dd3df72d1d75a570eb9b698292ec602052604090205460ff168015611731575b61172c90612657565b61280e565b503360009081527fad3228b676f7d3cd4284a5443f17f1962b36e491b30a40b2405849e597ba5fb5602052604090205460ff16611723565b3461016657604036600319011261016657600435611785612331565b816000526020600181526040600020916117a46004840154151561253c565b6001600160a01b039081169283156118ea575416331480156118ba575b801561189c575b6117d190612619565b600080516020612b6883398151915260005260008152604060002082600052815260ff6040600020541661184c575b826000526002815260406000209082600052526040600020600160ff1982541617905533917f7aeffe35f64b55a7c424c5fccc3fba0f3ac4ebd764cc737855b8734834458f2b600080a4005b6003815260406000208054680100000000000000008110156105505760018101808355811015611886578491600052826000200155611800565b634e487b7160e01b600052603260045260246000fd5b5060008080528082526040808220338352835290205460ff166117c8565b50600080516020612b8883398151915260005260008152604060002033600052815260ff604060002054166117c1565b60405162461bcd60e51b815260048101849052600b60248201526a626164206772616e74656560a81b6044820152606490fd5b3461016657604036600319011261016657611936612331565b336001600160a01b03821603611952576101aa90600435612ad2565b60405163334bd91960e11b8152600490fd5b34610166576040366003190112610166576101aa600435611983612331565b9080600052600060205261199e6001604060002001546127ca565b6129d2565b346101665760203660031901126101665760043560005260006020526020600160406000200154604051908152f35b3461016657602080600319360112610166576004358060005260018252604060002090600482015490611a0682151561253c565b600080516020612b8883398151915260005260008452604060002033600052845260ff60406000205416908115611b03575b8115611aef575b8115611acc575b5015611a9b5761163760018060a01b0392611629848254169460018301541691611a7e6003611a7760028401612574565b9201612574565b92604051978897885287015260a0604087015260a086019061238a565b60405162461bcd60e51b81526004810184905260096024820152686e6f2061636365737360b81b6044820152606490fd5b905060005260028352604060002033600052835260ff6040600020541684611a46565b83546001600160a01b031633149150611a3f565b90506000805260008452604060002033600052845260ff6040600020541690611a38565b34610166576060366003190112610166576001600160401b0360043560243582811161016657611b5b90369060040161235d565b60443584811161016657611b7390369060040161235d565b846000969296526001916020928084526040600020611b976004820154151561253c565b600080516020612b8883398151915260005260008552604060002033600052855260ff604060002054168015611e40575b8015611e2d575b8015611e0b575b15611dd657600281019083871161055057611bf587610474845461248b565b60009187601f8111600114611d6a5780611c2891600395600091611d5f575b508160011b916000199060031b1c19161790565b90555b0191831161055057611c4183610474845461248b565b600090601f8411600114611cd35750917f8f9586b5cb9b032c0c4e4176d5e760b09b3ab8ebef35a13a6edd4e28f13d858495949391611c9a8280611cc396600091611cc857508160011b916000199060031b1c19161790565b90555b611cb460405195869560408752604087019161251b565b9184830390850152339761251b565b0390a3005b90508b01358c611c14565b90601f1984169083600052856000209160005b8b828210611d4b57505091859391611cc3967f8f9586b5cb9b032c0c4e4176d5e760b09b3ab8ebef35a13a6edd4e28f13d85849a9998969410611d31575b505082811b019055611c9d565b8b0135600019600386901b60f8161c191690558a80611d24565b830135845592840192918701918701611ce6565b90508b01358e611c14565b508892601f198916908260005289896000209260005b8b89838310611dbc575050506003965010611da4575b50508388811b019055611c2b565b8a01356000198a861b60f8161c191690558b80611d96565b9885013586558e989590950194938401938d935001611d80565b60405162461bcd60e51b815260048101869052600d60248201526c3737903832b936b4b9b9b4b7b760991b6044820152606490fd5b508760005260028552604060002033600052855260ff60406000205416611bd6565b5080546001600160a01b03163314611bcf565b506000805260008552604060002033600052855260ff60406000205416611bc8565b3461016657608036600319011261016657611e7b612331565b6001600160401b0360443581811161016657611e9b90369060040161235d565b909160643581811161016657611eb590369060040161235d565b3360009081527fdf1cb6f79b8687a60e91aced08290a53cb47a179b80c0c7c836d1c923c9a5647602052604090205460ff1680156122a6575b801561226e575b611efe906123ca565b6001600160a01b0392868416156122365760043560005260016020526004604060002001546122085760405191611f3483612409565b8488168352611f5e6020840194338652611f4f36898b612445565b92604086019384523691612445565b60608401524260808401526004356000526001602052604060002093858451166001600160601b0360a01b908187541617865586600187019251169082541617905560028401905180519083821161055057611fbe82610bd4855461248b565b602090601f83116001146121a057611fee9291600091836121955750508160011b916000199060031b1c19161790565b90555b606082015180519182116105505761201982612010600387015461248b565b600387016124c5565b602090601f83116001146120fb577e73d3c2a84f8f8e279a002e4d9d8aed780efae1e49ef555bd671d416a3f9d869593612074846120eb97956004956080956000926120f05750508160011b916000199060031b1c19161790565b60038501555b015191015560043560005260026020526040600020818716600052602052604060002060ff199060018282541617905560043560005260026020526040600020336000526020526001604060002091825416179055604051918291602083523397169560043595602084019161251b565b0390a4005b015190508d8061036c565b906003850160005260206000209160005b601f198516811061217d5750936001846004946080947e73d3c2a84f8f8e279a002e4d9d8aed780efae1e49ef555bd671d416a3f9d869a986120eb9a98601f19811610612164575b505050811b01600385015561207a565b015160001960f88460031b161c191690558c8080612154565b9192602060018192868501518155019401920161210c565b015190508b8061036c565b90601f198316918460005260206000209260005b8181106121f057509084600195949392106121d7575b505050811b019055611ff1565b015160001960f88460031b161c191690558a80806121ca565b929360206001819287860151815501950193016121b4565b60405162461bcd60e51b815260206004820152600660248201526565786973747360d01b6044820152606490fd5b60405162461bcd60e51b815260206004820152601060248201526f1c185d1a595b9d081c995c5d5a5c995960821b6044820152606490fd5b503360009081527fad3228b676f7d3cd4284a5443f17f1962b36e491b30a40b2405849e597ba5fb5602052604090205460ff16611ef5565b503360009081527f7d7ffb7a348e1c6a02869081a26547b49160dd3df72d1d75a570eb9b698292ec602052604090205460ff16611eee565b34610166576020366003190112610166576004359063ffffffff60e01b821680920361016657602091637965db0b60e01b8114908115612320575b5015158152f35b6301ffc9a760e01b14905083612319565b602435906001600160a01b038216820361016657565b600435906001600160a01b038216820361016657565b9181601f84011215610166578235916001600160401b038311610166576020838186019501011161016657565b919082519283825260005b8481106123b6575050826000602080949584010152601f8019910116010190565b602081830181015184830182015201612395565b156123d157565b60405162461bcd60e51b815260206004820152601060248201526f3737ba103237b1ba37b917b0b236b4b760811b6044820152606490fd5b60a081019081106001600160401b0382111761055057604052565b90601f801991011681019081106001600160401b0382111761055057604052565b9291926001600160401b038211610550576040519161246e601f8201601f191660200184612424565b829481845281830111610166578281602093846000960137010152565b90600182811c921680156124bb575b60208310146124a557565b634e487b7160e01b600052602260045260246000fd5b91607f169161249a565b90601f81116124d357505050565b6000916000526020600020906020601f850160051c83019410612511575b601f0160051c01915b82811061250657505050565b8181556001016124fa565b90925082906124f1565b908060209392818452848401376000828201840152601f01601f1916010190565b1561254357565b60405162461bcd60e51b81526020600482015260096024820152681b9bdd08199bdd5b9960ba1b6044820152606490fd5b906040519182600082546125878161248b565b908184526020946001916001811690816000146125f757506001146125b8575b5050506125b692500383612424565b565b600090815285812095935091905b8183106125df5750506125b693508201013880806125a7565b855488840185015294850194879450918301916125c6565b925050506125b694925060ff191682840152151560051b8201013880806125a7565b1561262057565b60405162461bcd60e51b815260206004820152600f60248201526e3737ba1037bbb732b917b0b236b4b760891b6044820152606490fd5b1561265e57565b60405162461bcd60e51b81526020600482015260096024820152683737ba1030b236b4b760b91b6044820152606490fd5b1561269657565b60405162461bcd60e51b815260206004820152601a60248201527f43616e206f6e6c7920726567697374657220796f757273656c660000000000006044820152606490fd5b156126e257565b60405162461bcd60e51b815260206004820152601c60248201527f4848204e756d62657220616c72656164792072656769737465726564000000006044820152606490fd5b906000828152602091600183526040928383206004810154156127c157546001600160a01b039283169216821461279c57600080516020612b888339815191528352828152838320828452815260ff848420541680156127a6575b61279c5760ff948352600281528383209183525220541690565b5050505050600190565b50828052828152838320828452815260ff8484205416612782565b50505091505090565b80600052600060205260406000203360005260205260ff60406000205416156127f05750565b6044906040519063e2517d3f60e01b82523360048301526024820152fd5b6001600160a01b031660008181527fdf1cb6f79b8687a60e91aced08290a53cb47a179b80c0c7c836d1c923c9a56476020526040812054909190600080516020612b688339815191529060ff1661289757808352826020526040832082845260205260408320600160ff19825416179055600080516020612b48833981519152339380a4600190565b505090565b6001600160a01b031660008181527f01269c68c28a67305f4a2d47532888d6c961251cfcb06c9cdb6066d32b24b32060205260408120549091907f72606200fac42b7dc86b75901d61ecfab2a4a1a6eded478b97a428094891abed9060ff1661289757808352826020526040832082845260205260408320600160ff19825416179055600080516020612b48833981519152339380a4600190565b6001600160a01b031660008181527f232d22163c77b4a0f291591077ef3091c0cb2e3ee6d9de0538d0edea819cad5a60205260408120549091907f365427a77302f6c15e25fbb39b2016b6cfdc7982b9e30691e61947a1d364ea909060ff1661289757808352826020526040832082845260205260408320600160ff19825416179055600080516020612b48833981519152339380a4600190565b9060009180835282602052604083209160018060a01b03169182845260205260ff6040842054161560001461289757808352826020526040832082845260205260408320600160ff19825416179055600080516020612b48833981519152339380a4600190565b6001600160a01b031660008181527fdf1cb6f79b8687a60e91aced08290a53cb47a179b80c0c7c836d1c923c9a56476020526040812054909190600080516020612b688339815191529060ff16156128975780835282602052604083208284526020526040832060ff1981541690557ff6391f5c32d9c69d2a47ea670b442974b53935d1edc7fd64eb21e047a839171b339380a4600190565b9060009180835282602052604083209160018060a01b03169182845260205260ff6040842054166000146128975780835282602052604083208284526020526040832060ff1981541690557ff6391f5c32d9c69d2a47ea670b442974b53935d1edc7fd64eb21e047a839171b339380a460019056fe2f8788117e7eff1d82e926ec794901d17c78024a50270940304540a733656f0d0af1dac7dea2fd7f7738119cec7df099dfad49aa9d2e7d17ba6b60f63ae7411fa49807205ce4d355092ef5a8a18f56e8913cf4a201fbe287825b095693c21775a26469706673582212201200555a4eb405e09c0389f3030df52e9d31d140ed70ece28bb61f00679d680264736f6c634300081800332f8788117e7eff1d82e926ec794901d17c78024a50270940304540a733656f0d",
  "linkReferences": {},
  "deployedLinkReferences": {}
}